## 访问交易信息

### 1. 查询区块

正如我们所见，您可以有两种方式查询区块信息。

#### 1.1 只查询区块头

您可以调用客户端的`HeaderByNumber`来**返回有关一个区块的头信息**。**若传入`nil`，它将返回最新的区块头**。

```go
header, err := client.HeaderByNumber(context.Background(), nil)
if err != nil {
  log.Fatal(err)
}

fmt.Println(header.Number.String()) // 5671744
```

#### 1.2 查询完整区块

调用客户端的`BlockByNumber`方法来获得完整区块。您可以读取该区块的所有内容和元数据，例如，区块号，区块时间戳，区块摘要，区块难度以及交易列表等等。

```go
blockNumber := big.NewInt(5671744)
block, err := client.BlockByNumber(context.Background(), blockNumber)
if err != nil {
  log.Fatal(err)
}

fmt.Println(block.Number().Uint64())     // 5671744
fmt.Println(block.Time())       // 1527211625
fmt.Println(block.Difficulty().Uint64()) // 3217000136609065
fmt.Println(block.Hash().Hex())          // 0x9e8751ebb5069389b855bba72d94902cc385042661498a415979b7b6ee9ba4b9
fmt.Println(len(block.Transactions()))   // 144
```

调用Transaction只**返回一个区块的交易数目**。

```go
count, err := client.TransactionCount(context.Background(), block.Hash())  //根据区块哈希查询
if err != nil {
  log.Fatal(err)
}

fmt.Println(count) // 144
```

#### 1.3 完整代码

```go
package main

import (
    "context"
    "fmt"
    "log"
    "math/big"

    "github.com/ethereum/go-ethereum/ethclient"
)

func main() {
    client, err := ethclient.Dial("https://cloudflare-eth.com")
    if err != nil {
        log.Fatal(err)
    }

    header, err := client.HeaderByNumber(context.Background(), nil)
    if err != nil {
        log.Fatal(err)
    }

    fmt.Println(header.Number.String()) // 5671744

    blockNumber := big.NewInt(5671744)
    block, err := client.BlockByNumber(context.Background(), blockNumber)  //返回一个区块对象实体
    if err != nil {
        log.Fatal(err)
    }

    fmt.Println(block.Number().Uint64())     // 5671744
    fmt.Println(block.Time())       // 1527211625
    fmt.Println(block.Difficulty().Uint64()) // 3217000136609065
    fmt.Println(block.Hash().Hex())          // 0x9e8751ebb5069389b855bba72d94902cc385042661498a415979b7b6ee9ba4b9
    fmt.Println(len(block.Transactions()))   // 144

    count, err := client.TransactionCount(context.Background(), block.Hash())
    if err != nil {
        log.Fatal(err)
    }

    fmt.Println(count) // 144
}
```

### 2. 查询区块内交易

#### 2.1 获取区块内交易的具体内容

在[上个章节](https://goethereumbook.org/zh/block-query) 我们学习了如何在给定区块编号的情况下读取块及其所有数据。 我们可以通过**调用`Transactions`方法来读取块中的事务**，该方法**返回一个`Transaction`类型的列表**。 然后，重复遍历集合并获取有关事务的任何信息就变得简单了。

```go
for _, tx := range block.Transactions() {
  fmt.Println(tx.Hash().Hex())        // 0x5d49fcaa394c97ec8a9c3e7bd9e8388d420fb050a52083ca52ff24b3b65bc9c2
  fmt.Println(tx.Value().String())    // 10000000000000000
  fmt.Println(tx.Gas())               // 105000
  fmt.Println(tx.GasPrice().Uint64()) // 102000000000
  fmt.Println(tx.Nonce())             // 110644
  fmt.Println(tx.Data())              // []
  fmt.Println(tx.To().Hex())          // 0x55fE59D8Ad77035154dDd0AD0388D09Dd4047A8e
}
```

#### 2.2 获取交易sender地址

为了读取**交易发送方的地址**，我们需要**在tx上调用`AsMessage()`方法**，它**返回一个`Message`类型**，其中**包含一个返回sender（from）地址的函数**。 `AsMessage`方法**需要EIP155签名者，这个我们从客户端拿到链ID**。

```go
chainID, err := client.NetworkID(context.Background())
if err != nil {
  log.Fatal(err)
}

if msg, err := tx.AsMessage(types.NewEIP155Signer(chainID)); err == nil {
  fmt.Println(msg.From().Hex()) // 0x0fD081e3Bb178dc45c0cb23202069ddA57064258
}
```

此处有两点需要注意：

```go
1.使用的types包需要引用自"github.com/ethereum/go-ethereum/core/types"，而不是"github.com/FISCO-BCOS/go-sdk/core/types"。经测试vscode会自动引用后者，需要使用者自动进行修改

2.client.NetworkID(context.Background())函数会报错，原因是以太坊给出的 NetworkID方法 源码存在问题:
func (ec *Client) NetworkID(ctx context.Context) (*big.Int, error) {
    version := new(big.Int)
	var ver string      //存在问题，需要修改为int类型  
	if err := ec.c.CallContext(ctx, &ver, "net_version"); err != nil {
		return nil, err
	}
    if _, ok := version.SetString(ver, 10); !ok {   //此处的ver应该修改为:fmt.Sprintf("%d", ver)
		return nil, fmt.Errorf("invalid net_version result %q", ver)
	}
	return version, nil
}
```

#### 2.3 根据交易hash获取交易的收据

每个tx都有一个收据，其中包含执行tx的结果，例如任何返回值和日志，以及为“1”（成功）或“0”（失败）的事件结果状态。

```go
receipt, err := client.TransactionReceipt(context.Background(), tx.Hash())
if err != nil {
  log.Fatal(err)
}

fmt.Println(receipt.Status) // 1
fmt.Println(receipt.Logs) // ...
```

#### 2.4 根据块Hash和交易索引值获取交易

在不获取块的情况下遍历交易的另一种方法是**调用客户端的TransactionInBlock方法**。 此方法仅**接受块哈希和块内交易的索引值**。 您可以**调用TransactionCount来了解块中有多少笔交易**。

```go
blockHash := common.HexToHash("0x9e8751ebb5069389b855bba72d94902cc385042661498a415979b7b6ee9ba4b9")
count, err := client.TransactionCount(context.Background(), blockHash)  //根据区块hash获取块内交易数目
if err != nil {
  log.Fatal(err)
}

for idx := uint(0); idx < count; idx++ {   //根据区块hash和交易索引值获取一笔交易
  tx, err := client.TransactionInBlock(context.Background(), blockHash, idx)
  if err != nil {
    log.Fatal(err)
  }

    fmt.Println(tx.Hash().Hex()) //打印每一笔tx的hash值(十六进制字符串形式)
}
```

#### 2.5 根据交易hash直接获取交易

您还可以使用`TransactionByHash`在给定具体交易哈希值的情况下**直接查询单个交易**。

```go
txHash := common.HexToHash("0x5d49fcaa394c97ec8a9c3e7bd9e8388d420fb050a52083ca52ff24b3b65bc9c2")
tx, isPending, err := client.TransactionByHash(context.Background(), txHash)
if err != nil {
  log.Fatal(err)
}

fmt.Println(tx.Hash().Hex()) // 0x5d49fcaa394c97ec8a9c3e7bd9e8388d420fb050a52083ca52ff24b3b65bc9c2
fmt.Println(isPending)       // false
```

2.6 完整代码

```go
package main

import (
    "context"
    "fmt"
    "log"
    "math/big"

    "github.com/ethereum/go-ethereum/common"
    "github.com/ethereum/go-ethereum/core/types"
    "github.com/ethereum/go-ethereum/ethclient"
)

func main() {
    client, err := ethclient.Dial("https://cloudflare-eth.com")
    if err != nil {
        log.Fatal(err)
    }

    // 1.根据区块编号直接获取区块实体
    blockNumber := big.NewInt(5671744)
    block, err := client.BlockByNumber(context.Background(), blockNumber)
    if err != nil {
        log.Fatal(err)
    }
	// 2.使用区块的Transactions()获取交易列表，可以访问交易对象tx的各项信息
    for _, tx := range block.Transactions() {
        fmt.Println(tx.Hash().Hex())        // 0x5d49fcaa394c97ec8a9c3e7bd9e8388d420fb050a52083ca52ff24b3b65bc9c2
        fmt.Println(tx.Value().String())    // 10000000000000000
        fmt.Println(tx.Gas())               // 105000
        fmt.Println(tx.GasPrice().Uint64()) // 102000000000
        fmt.Println(tx.Nonce())             // 110644
        fmt.Println(tx.Data())              // []
        fmt.Println(tx.To().Hex())          // 0x55fE59D8Ad77035154dDd0AD0388D09Dd4047A8e
		// 3.获取每笔交易tx的sender的地址以及交易的收据receipt
        chainID, err := client.NetworkID(context.Background())
        if err != nil {
            log.Fatal(err)
        }
		// 获取交易的sender的address
        if msg, err := tx.AsMessage(types.NewEIP155Signer(chainID)); err == nil {
            fmt.Println(msg.From().Hex()) // 0x0fD081e3Bb178dc45c0cb23202069ddA57064258
        }
		// 获取交易的收据
        receipt, err := client.TransactionReceipt(context.Background(), tx.Hash())
        if err != nil {
            log.Fatal(err)
        }

        fmt.Println(receipt.Status) // 1--成功的交易  0--失败的交易
    }
	// 3.根据区块hash获取和交易索引值获取交易对象
    blockHash := common.HexToHash("0x9e8751ebb5069389b855bba72d94902cc385042661498a415979b7b6ee9ba4b9")
    count, err := client.TransactionCount(context.Background(), blockHash)  //区块内交易数目
    if err != nil {
        log.Fatal(err)
    }
	// 根据索引值访问每笔交易
    for idx := uint(0); idx < count; idx++ {
        tx, err := client.TransactionInBlock(context.Background(), blockHash, idx)
        if err != nil {
            log.Fatal(err)
        }

        fmt.Println(tx.Hash().Hex()) // 0x5d49fcaa394c97ec8a9c3e7bd9e8388d420fb050a52083ca52ff24b3b65bc9c2
    }
	// 4.根据交易hash值直接访问交易
    txHash := common.HexToHash("0x5d49fcaa394c97ec8a9c3e7bd9e8388d420fb050a52083ca52ff24b3b65bc9c2")
    tx, isPending, err := client.TransactionByHash(context.Background(), txHash)
    if err != nil {
        log.Fatal(err)
    }

    fmt.Println(tx.Hash().Hex()) // 0x5d49fcaa394c97ec8a9c3e7bd9e8388d420fb050a52083ca52ff24b3b65bc9c2
    fmt.Println(isPending)       // false
}
```

### 3.ETH 转账

学习如何将ETH从一个帐户转移到另一个帐户。一笔交易包括打算转账的以太币数量，燃气限额，燃气价格，一个随机数(nonce)，接收地址以及可选择性的添加的数据。 在广告发送到网络之前，必须使用发送方的私钥对该交易进行签名。

#### 3.1 加载本地的私钥

假设您已经连接了客户端，下一步就是加载您的私钥。

```go
//1.加载已有的私钥
privateKey, err := crypto.HexToECDSA("fad9c8855b740a0b7ed4c221dbad0f33a83a49cad6b3fe8d5817ac83d38b6a19")
if err != nil {
  log.Fatal(err)
}
//2.使用新生成的私钥
privateKey, err := crypto.GenerateKey() //生成私钥
	if err != nil {
		log.Fatal(err)
	}
```

#### 3.2 设置交易的nonce

之后我们需要获得帐户的随机数(nonce)。 每笔交易都需要一个nonce。 根据定义，**nonce是仅使用一次的数字**。  如果是发送交易的**新帐户，则该随机数将为“0”**。  来自帐户的**每个新交易都必须具有前一个nonce增加1的nonce**。很难对所有nonce进行手动跟踪，于是**ethereum客户端提供一个帮助方法`PendingNonceAt`，它将返回你应该使用的下一个nonce**。

该函数需要我们发送的帐户的公共地址 - 这个我们可以从私钥派生。

```go
publicKey := privateKey.Public()
publicKeyECDSA, ok := publicKey.(*ecdsa.PublicKey)
if !ok {
  log.Fatal("cannot assert type: publicKey is not of type *ecdsa.PublicKey")
}

fromAddress := crypto.PubkeyToAddress(*publicKeyECDSA)
```

接下来我们可以读取我们应该用于帐户交易的随机数。

```go
nonce, err := client.PendingNonceAt(context.Background(), fromAddress)
if err != nil {
  log.Fatal(err)
}
```

#### 3.3 设置要转移的ETH数

下一步是设置我们将要转移的ETH数量。 但是我们**必须将ETH以太转换为wei**，因为这是以太坊区块链所使用的。 **以太网支持最多18个小数位，因此1个ETH为1加18个零**。

 这里有一个小工具可以帮助您在ETH和wei之间进行转换: https://etherconverter.netlify.com

```go
value := big.NewInt(1000000000000000000) // in wei (1 eth)
```

#### 3.4 设置燃油上限和燃油价格

##### 3.4.1 设置燃油上限

ETH转账的燃气应设上限为“21000”单位**(不同操作消耗的燃油单位不同)**。

```go
gasLimit := uint64(21000) // in units
```

##### 3.4.2 设置燃油费(单个燃油单位的价格)

**燃气价格必须以wei为单位设定**。 在撰写本文时，将在一个区块中比较快的打包交易的燃气价格为30 gwei。

```go
gasPrice := big.NewInt(30000000000) // in wei (30 gwei)
```

然而，**燃气价格总是根据市场需求和用户愿意支付的价格而波动的**，因此对燃气价格进行硬编码有时并不理想。 go-ethereum客户端提供**`SuggestGasPrice`函数，用于根据'x'个先前块来获得平均燃气价格**。

```go
gasPrice, err := client.SuggestGasPrice(context.Background())
if err != nil {
  log.Fatal(err)
}
```

#### 3.5 设置目的账户地址

接下来我们弄清楚我们将ETH发送给谁。

```go
toAddress := common.HexToAddress("0x4592d8f8d7b001e72cb26a73e4fa1806a51ac79d")
```

#### 3.6 生成交易

现在我们最终可以通过导入go-ethereum`core/types`包并**调用`NewTransaction`来生成我们的未签名以太坊交易**，这个函数需要**接收nonce，地址，转账的ETH数，燃气上限值，燃气价格和可选发送的数据**。 发送ETH的数据字段为“nil”。 在**与智能合约进行交互时，我们将使用数据字段，仅仅转账以太币是不需要数据字段的。**

```go
tx := types.NewTransaction(nonce, toAddress, value, gasLimit, gasPrice, nil)
```

#### 3.7 发送者对交易签名

下一步是**使用发件人的私钥对交易进行签名**。 为此，我们调用`SignTx`方法，该方法接受一个未签名的事务和我们之前构造的私钥。 `SignTx`方法需要EIP155签名者，这个也需要我们先从客户端拿到链ID。

```go
chainID, err := client.NetworkID(context.Background())
if err != nil {
  log.Fatal(err)
}

signedTx, err := types.SignTx(tx, types.NewEIP155Signer(chainID), privateKey)
if err != nil {
  log.Fatal(err)
}
```

#### 3.8 将交易广播上链

现在我们终于准备通过在客户端上**调用“SendTransaction”来将已签名的交易广播到整个网络**。

```go
err = client.SendTransaction(context.Background(), signedTx)
if err != nil {
  log.Fatal(err)
}

fmt.Printf("tx sent: %s", signedTx.Hash().Hex()) // tx sent: 0x77006fcb3938f648e2cc65bafd27dec30b9bfbe9df41f78498b9c8b7322a249e
```

可以去Etherscan看交易的确认过程:  https://rinkeby.etherscan.io/tx/0x77006fcb3938f648e2cc65bafd27dec30b9bfbe9df41f78498b9c8b7322a249e

#### 3.9 完整代码

```go
package main

import (
    "context"
    "crypto/ecdsa"
    "fmt"
    "log"
    "math/big"

    "github.com/ethereum/go-ethereum/common"
    "github.com/ethereum/go-ethereum/core/types"
    "github.com/ethereum/go-ethereum/crypto"
    "github.com/ethereum/go-ethereum/ethclient"
)

func main() {
    client, err := ethclient.Dial("https://rinkeby.infura.io")
    if err != nil {
        log.Fatal(err)
    }

    privateKey, err := crypto.HexToECDSA("fad9c8855b740a0b7ed4c221dbad0f33a83a49cad6b3fe8d5817ac83d38b6a19")
    if err != nil {
        log.Fatal(err)
    }

    publicKey := privateKey.Public()
    publicKeyECDSA, ok := publicKey.(*ecdsa.PublicKey)
    if !ok {
        log.Fatal("cannot assert type: publicKey is not of type *ecdsa.PublicKey")
    }

    fromAddress := crypto.PubkeyToAddress(*publicKeyECDSA)
    nonce, err := client.PendingNonceAt(context.Background(), fromAddress)
    if err != nil {
        log.Fatal(err)
    }

    value := big.NewInt(1000000000000000000) // in wei (1 eth)
    gasLimit := uint64(21000)                // in units
    gasPrice, err := client.SuggestGasPrice(context.Background())
    if err != nil {
        log.Fatal(err)
    }

    toAddress := common.HexToAddress("0x4592d8f8d7b001e72cb26a73e4fa1806a51ac79d")
    var data []byte
    tx := types.NewTransaction(nonce, toAddress, value, gasLimit, gasPrice, data)

    chainID, err := client.NetworkID(context.Background())
    if err != nil {
        log.Fatal(err)
    }

    signedTx, err := types.SignTx(tx, types.NewEIP155Signer(chainID), privateKey)
    if err != nil {
        log.Fatal(err)
    }

    err = client.SendTransaction(context.Background(), signedTx)
    if err != nil {
        log.Fatal(err)
    }

    fmt.Printf("tx sent: %s", signedTx.Hash().Hex())
}
```

### 4. 订阅新区块

#### 4.1 订阅流程

在本节中，我们将讨论如何**设置订阅以便在新区块被开采时获取事件(也就是获取这个新产生的区块)**。首先，我们**需要一个支持websocket RPC的以太坊服务提供者**。在示例中，我们将使用infura 的websocket端点。

```go
client, err := ethclient.Dial("wss://ropsten.infura.io/ws")
if err != nil {
  log.Fatal(err)
}
```

接下来，我们将**创建一个新的通道，用于接收最新的区块头。**

```go
headers := make(chan *types.Header)
```

现在我们**调用客户端的`SubscribeNewHead`方法**，它**接收我们刚创建的区块头通道**，该方法将**返回一个订阅对象**。

```go
sub, err := client.SubscribeNewHead(context.Background(), headers)
if err != nil {
  log.Fatal(err)
}
```

**订阅将推送新的区块头事件到我们的通道**，因此我们可以**使用一个select语句来监听新消息**。订阅对象还包括一个error通道，该通道将在订阅失败时发送消息。

```go
for {
  select {
  case err := <-sub.Err():
    log.Fatal(err)
  case header := <-headers:
    fmt.Println(header.Hash().Hex()) // 0xbc10defa8dda384c96a17640d84de5578804945d347072e091b4e5f390ddea7f
  }
}
```

要**获得该区块的完整内容**，我们可以**将区块头的摘要传递给客户端的`BlockByHash`函数**。

```go
block, err := client.BlockByHash(context.Background(), header.Hash())
if err != nil {
  log.Fatal(err)
}

fmt.Println(block.Hash().Hex())        // 0xbc10defa8dda384c96a17640d84de5578804945d347072e091b4e5f390ddea7f
fmt.Println(block.Number().Uint64())   // 3477413
fmt.Println(block.Time().Uint64())     // 1529525947
fmt.Println(block.Nonce())             // 130524141876765836
fmt.Println(len(block.Transactions())) // 7
```

#### 4.2 完整代码

```go
package main

import (
    "context"
    "fmt"
    "log"

    "github.com/ethereum/go-ethereum/core/types"
    "github.com/ethereum/go-ethereum/ethclient"
)

func main() {
    client, err := ethclient.Dial("wss://ropsten.infura.io/ws")
    if err != nil {
        log.Fatal(err)
    }

    headers := make(chan *types.Header)
    sub, err := client.SubscribeNewHead(context.Background(), headers)
    if err != nil {
        log.Fatal(err)
    }

    for {
        select {
        case err := <-sub.Err():
            log.Fatal(err)
        case header := <-headers:
            fmt.Println(header.Hash().Hex()) // 0xbc10defa8dda384c96a17640d84de5578804945d347072e091b4e5f390ddea7f

            block, err := client.BlockByHash(context.Background(), header.Hash())
            if err != nil {
                log.Fatal(err)
            }

            fmt.Println(block.Hash().Hex())        // 0xbc10defa8dda384c96a17640d84de5578804945d347072e091b4e5f390ddea7f
            fmt.Println(block.Number().Uint64())   // 3477413
            fmt.Println(block.Time().Uint64())     // 1529525947
            fmt.Println(block.Nonce())             // 130524141876765836
            fmt.Println(len(block.Transactions())) // 7
        }
    }
}
```

### 5.交易的序列化与反序列化

#### 5.1 序列化

首先构造交易对象并对其进行签名，例如：

```go
tx := types.NewTransaction(nonce, toAddress, value, gasLimit, gasPrice, data)

signedTx, err := types.SignTx(tx, types.NewEIP155Signer(chainID), privateKey)
if err != nil {
  log.Fatal(err)
}
```

现在，在我们以原始字节格式获取交易之前，我们需要初始化一个`types.Transactions`类型，并将签名后的交易作为第一个值。

```go
ts := types.Transactions{signedTx}
```

这样做的原因是因为**`Transactions`类型提供了一个`GetRlp`方法**，用于**以RLP编码格式返回交易**。 RLP是以太坊用于序列化对象的特殊编码方法。 结果是原始字节。

```go
rawTxBytes := ts.GetRlp(0)
```

最后，我们可以非常轻松地将原始字节转换为十六进制字符串。

```go
rawTxHex := hex.EncodeToString(rawTxBytes)

fmt.Printf(rawTxHex)
```

#### 5.2 反序列化

首先将原始交易rlp编码后的十六进制字符串解码为字节格式。

```go
rawTx := "f86d8202b28477359400825208944592d8f8d7b001e72cb26a73e4fa1806a51ac79d880de0b6b3a7640000802ca05924bde7ef10aa88db9c66dd4f5fb16b46dff2319b9968be983118b57bb50562a001b24b31010004f13d9a26b320845257a6cfc2bf819a3d55e3fc86263c5f0772"

rawTxBytes, err := hex.DecodeString(rawTx)
```

接下来初始化一个新的`types.Transaction`指针并从go-ethereum`rlp`包中调用`DecodeBytes`，将原始交易字节流和指针传递给以太坊交易类型。 

```go
tx := new(types.Transaction)
rlp.DecodeBytes(rawTxBytes, &tx)
```

现在，我们可以使用我们的以太坊客户端轻松地广播交易。

```go
err := client.SendTransaction(context.Background(), tx)
if err != nil {
  log.Fatal(err)
}

fmt.Printf("tx sent: %s", tx.Hash().Hex()) 
```

